{
  "contractName": "ToDo",
  "abi": [
    {
      "anonymous": false,
      "inputs": [
        {
          "indexed": true,
          "internalType": "address",
          "name": "user",
          "type": "address"
        },
        {
          "indexed": false,
          "internalType": "string",
          "name": "title",
          "type": "string"
        }
      ],
      "name": "newTaskAlert",
      "type": "event"
    },
    {
      "constant": false,
      "inputs": [
        {
          "internalType": "string",
          "name": "_title",
          "type": "string"
        },
        {
          "internalType": "string",
          "name": "_dueIn",
          "type": "string"
        }
      ],
      "name": "addTask",
      "outputs": [],
      "payable": false,
      "stateMutability": "nonpayable",
      "type": "function"
    },
    {
      "constant": false,
      "inputs": [
        {
          "internalType": "uint256",
          "name": "_index",
          "type": "uint256"
        }
      ],
      "name": "toggleCompleted",
      "outputs": [],
      "payable": false,
      "stateMutability": "nonpayable",
      "type": "function"
    },
    {
      "constant": true,
      "inputs": [],
      "name": "getMyTasks",
      "outputs": [
        {
          "components": [
            {
              "internalType": "string",
              "name": "title",
              "type": "string"
            },
            {
              "internalType": "string",
              "name": "dueIn",
              "type": "string"
            },
            {
              "internalType": "bool",
              "name": "completed",
              "type": "bool"
            }
          ],
          "internalType": "struct ToDo.TaskData[]",
          "name": "",
          "type": "tuple[]"
        }
      ],
      "payable": false,
      "stateMutability": "view",
      "type": "function"
    }
  ],
  "bytecode": "0x608060405234801561001057600080fd5b506109ad806100206000396000f3fe608060405234801561001057600080fd5b50600436106100415760003560e01c8063455f5024146100465780636e13f81814610062578063b37b100014610080575b600080fd5b610060600480360361005b9190810190610652565b61009c565b005b61006a610179565b60405161007791906107dc565b60405180910390f35b61009a600480360361009591908101906105e6565b610373565b005b6000803373ffffffffffffffffffffffffffffffffffffffff1673ffffffffffffffffffffffffffffffffffffffff16815260200190815260200160002081815481106100e557fe5b906000526020600020906003020160020160009054906101000a900460ff16156000803373ffffffffffffffffffffffffffffffffffffffff1673ffffffffffffffffffffffffffffffffffffffff168152602001908152602001600020828154811061014e57fe5b906000526020600020906003020160020160006101000a81548160ff02191690831515021790555050565b60606000803373ffffffffffffffffffffffffffffffffffffffff1673ffffffffffffffffffffffffffffffffffffffff168152602001908152602001600020805480602002602001604051908101604052809291908181526020016000905b8282101561036a5783829060005260206000209060030201604051806060016040529081600082018054600181600116156101000203166002900480601f0160208091040260200160405190810160405280929190818152602001828054600181600116156101000203166002900480156102955780601f1061026a57610100808354040283529160200191610295565b820191906000526020600020905b81548152906001019060200180831161027857829003601f168201915b50505050508152602001600182018054600181600116156101000203166002900480601f0160208091040260200160405190810160405280929190818152602001828054600181600116156101000203166002900480156103375780601f1061030c57610100808354040283529160200191610337565b820191906000526020600020905b81548152906001019060200180831161031a57829003601f168201915b505050505081526020016002820160009054906101000a900460ff161515151581525050815260200190600101906101d9565b50505050905090565b61037b6104b5565b60405180606001604052808481526020018381526020016000151581525090506000803373ffffffffffffffffffffffffffffffffffffffff1673ffffffffffffffffffffffffffffffffffffffff168152602001908152602001600020819080600181540180825580915050906001820390600052602060002090600302016000909192909190915060008201518160000190805190602001906104219291906104d8565b50602082015181600101908051906020019061043e9291906104d8565b5060408201518160020160006101000a81548160ff0219169083151502179055505050503373ffffffffffffffffffffffffffffffffffffffff167fb09372cf0d2a10ff94c57dd1d8a827def1a2074305ea549f7904c852d4383495846040516104a891906107fe565b60405180910390a2505050565b604051806060016040528060608152602001606081526020016000151581525090565b828054600181600116156101000203166002900490600052602060002090601f016020900481019282601f1061051957805160ff1916838001178555610547565b82800160010185558215610547579182015b8281111561054657825182559160200191906001019061052b565b5b5090506105549190610558565b5090565b61057a91905b8082111561057657600081600090555060010161055e565b5090565b90565b600082601f83011261058e57600080fd5b81356105a161059c8261084d565b610820565b915080825260208301602083018583830111156105bd57600080fd5b6105c8838284610900565b50505092915050565b6000813590506105e081610953565b92915050565b600080604083850312156105f957600080fd5b600083013567ffffffffffffffff81111561061357600080fd5b61061f8582860161057d565b925050602083013567ffffffffffffffff81111561063c57600080fd5b6106488582860161057d565b9150509250929050565b60006020828403121561066457600080fd5b6000610672848285016105d1565b91505092915050565b60006106878383610785565b905092915050565b600061069a82610889565b6106a481856108b7565b9350836020820285016106b685610879565b8060005b858110156106f257848403895281516106d3858261067b565b94506106de836108aa565b925060208a019950506001810190506106ba565b50829750879550505050505092915050565b61070d816108ea565b82525050565b600061071e8261089f565b61072881856108d9565b935061073881856020860161090f565b61074181610942565b840191505092915050565b600061075782610894565b61076181856108c8565b935061077181856020860161090f565b61077a81610942565b840191505092915050565b600060608301600083015184820360008601526107a2828261074c565b915050602083015184820360208601526107bc828261074c565b91505060408301516107d16040860182610704565b508091505092915050565b600060208201905081810360008301526107f6818461068f565b905092915050565b600060208201905081810360008301526108188184610713565b905092915050565b6000604051905081810181811067ffffffffffffffff8211171561084357600080fd5b8060405250919050565b600067ffffffffffffffff82111561086457600080fd5b601f19601f8301169050602081019050919050565b6000819050602082019050919050565b600081519050919050565b600081519050919050565b600081519050919050565b6000602082019050919050565b600082825260208201905092915050565b600082825260208201905092915050565b600082825260208201905092915050565b60008115159050919050565b6000819050919050565b82818337600083830152505050565b60005b8381101561092d578082015181840152602081019050610912565b8381111561093c576000848401525b50505050565b6000601f19601f8301169050919050565b61095c816108f6565b811461096757600080fd5b5056fea365627a7a7231582077633d1b165cdd8610f7827c4fdb83e4ffce1e131a32014451bf2273f90d17456c6578706572696d656e74616cf564736f6c63430005100040",
  "source": "// SPDX-License-Identifier: MIT\r\npragma solidity >=0.4.21 <8.10.0;\r\npragma experimental ABIEncoderV2;\r\n\r\ncontract ToDo {\r\n    // To do struct\r\n    struct TaskData {\r\n        string title;\r\n        string dueIn;\r\n        bool completed;\r\n    }\r\n\r\n    // map strcut arrays to address\r\n    mapping(address => TaskData[]) tasks;\r\n\r\n    event newTaskAlert(address indexed user, string title);\r\n\r\n    // insert new task\r\n    function addTask(string memory _title, string memory _dueIn) public {\r\n        TaskData memory newTask = TaskData(_title, _dueIn, false);\r\n        tasks[msg.sender].push(newTask);\r\n        emit newTaskAlert(msg.sender, _title);\r\n    }\r\n\r\n    // toggle completed status\r\n    function toggleCompleted(uint256 _index) public {\r\n        tasks[msg.sender][_index].completed = !tasks[msg.sender][_index]\r\n            .completed;\r\n    }\r\n\r\n    // get users tasks\r\n    function getMyTasks() public view returns (TaskData[] memory) {\r\n        return tasks[msg.sender];\r\n    }\r\n}\r\n",
  "sourcePath": "C:\\Users\\Win\\Desktop\\Shakya\\Programming\\DecentralizedToDO\\contracts\\ToDo.sol",
  "compiler": {
    "name": "solc",
    "version": "0.5.16+commit.9c3226ce.Emscripten.clang"
  },
  "schemaVersion": "3.4.4",
  "updatedAt": "2022-03-19T06:56:07.007Z",
  "devdoc": {
    "methods": {}
  },
  "userdoc": {
    "methods": {}
  }
}